{
  "contractName": "collectionRegistry",
  "abi": [
    {
      "constant": true,
      "inputs": [
        {
          "name": "",
          "type": "address"
        },
        {
          "name": "",
          "type": "uint256"
        }
      ],
      "name": "collections",
      "outputs": [
        {
          "name": "",
          "type": "address"
        }
      ],
      "payable": false,
      "stateMutability": "view",
      "type": "function"
    },
    {
      "constant": false,
      "inputs": [
        {
          "name": "title",
          "type": "string"
        },
        {
          "name": "alias",
          "type": "string"
        }
      ],
      "name": "createCollection",
      "outputs": [
        {
          "name": "",
          "type": "address"
        }
      ],
      "payable": false,
      "stateMutability": "nonpayable",
      "type": "function"
    },
    {
      "constant": true,
      "inputs": [
        {
          "name": "walletAddr",
          "type": "address"
        }
      ],
      "name": "getCollectionsByAddr",
      "outputs": [
        {
          "name": "",
          "type": "address[]"
        }
      ],
      "payable": false,
      "stateMutability": "view",
      "type": "function"
    }
  ],
  "bytecode": "0x608060405234801561001057600080fd5b50610d17806100206000396000f300608060405260043610610057576000357c0100000000000000000000000000000000000000000000000000000000900463ffffffff168063176b9b751461005c57806349a764cd1461014b5780637e12fee0146101d8575b600080fd5b34801561006857600080fd5b50610109600480360381019080803590602001908201803590602001908080601f0160208091040260200160405190810160405280939291908181526020018383808284378201915050505050509192919290803590602001908201803590602001908080601f0160208091040260200160405190810160405280939291908181526020018383808284378201915050505050509192919290505050610270565b604051808273ffffffffffffffffffffffffffffffffffffffff1673ffffffffffffffffffffffffffffffffffffffff16815260200191505060405180910390f35b34801561015757600080fd5b50610196600480360381019080803573ffffffffffffffffffffffffffffffffffffffff16906020019092919080359060200190929190505050610423565b604051808273ffffffffffffffffffffffffffffffffffffffff1673ffffffffffffffffffffffffffffffffffffffff16815260200191505060405180910390f35b3480156101e457600080fd5b50610219600480360381019080803573ffffffffffffffffffffffffffffffffffffffff169060200190929190505050610470565b6040518080602001828103825283818151815260200191508051906020019060200280838360005b8381101561025c578082015181840152602081019050610241565b505050509050019250505060405180910390f35b600080838361027d61053c565b808060200180602001838103835285818151815260200191508051906020019080838360005b838110156102be5780820151818401526020810190506102a3565b50505050905090810190601f1680156102eb5780820380516001836020036101000a031916815260200191505b50838103825284818151815260200191508051906020019080838360005b83811015610324578082015181840152602081019050610309565b50505050905090810190601f1680156103515780820380516001836020036101000a031916815260200191505b50945050505050604051809103906000f080158015610374573d6000803e3d6000fd5b5090506000803373ffffffffffffffffffffffffffffffffffffffff1673ffffffffffffffffffffffffffffffffffffffff1681526020019081526020016000208190806001815401808255809150509060018203906000526020600020016000909192909190916101000a81548173ffffffffffffffffffffffffffffffffffffffff021916908373ffffffffffffffffffffffffffffffffffffffff160217905550508091505092915050565b60006020528160005260406000208181548110151561043e57fe5b906000526020600020016000915091509054906101000a900473ffffffffffffffffffffffffffffffffffffffff1681565b60606000808373ffffffffffffffffffffffffffffffffffffffff1673ffffffffffffffffffffffffffffffffffffffff16815260200190815260200160002080548060200260200160405190810160405280929190818152602001828054801561053057602002820191906000526020600020905b8160009054906101000a900473ffffffffffffffffffffffffffffffffffffffff1673ffffffffffffffffffffffffffffffffffffffff16815260200190600101908083116104e6575b50505050509050919050565b60405161079f8061054d833901905600608060405234801561001057600080fd5b5060405161079f38038061079f8339810180604052810190808051820192919060200180518201929190505050336000806101000a81548173ffffffffffffffffffffffffffffffffffffffff021916908373ffffffffffffffffffffffffffffffffffffffff16021790555081600290805190602001906100939291906100b2565b5080600190805190602001906100aa9291906100b2565b505050610157565b828054600181600116156101000203166002900490600052602060002090601f016020900481019282601f106100f357805160ff1916838001178555610121565b82800160010185558215610121579182015b82811115610120578251825591602001919060010190610105565b5b50905061012e9190610132565b5090565b61015491905b80821115610150576000816000905550600101610138565b5090565b90565b610639806101666000396000f30060806040526004361061006d576000357c0100000000000000000000000000000000000000000000000000000000900463ffffffff1680631a77447c146100725780631ae879e81461016e578063363cafb4146101c5578063893d20e814610255578063a8107793146102ac575b600080fd5b34801561007e57600080fd5b5061008761033c565b604051808060200180602001838103835285818151815260200191508051906020019080838360005b838110156100cb5780820151818401526020810190506100b0565b50505050905090810190601f1680156100f85780820380516001836020036101000a031916815260200191505b50838103825284818151815260200191508051906020019080838360005b83811015610131578082015181840152602081019050610116565b50505050905090810190601f16801561015e5780820380516001836020036101000a031916815260200191505b5094505050505060405180910390f35b34801561017a57600080fd5b50610183610483565b604051808273ffffffffffffffffffffffffffffffffffffffff1673ffffffffffffffffffffffffffffffffffffffff16815260200191505060405180910390f35b3480156101d157600080fd5b506101da6104a8565b6040518080602001828103825283818151815260200191508051906020019080838360005b8381101561021a5780820151818401526020810190506101ff565b50505050905090810190601f1680156102475780820380516001836020036101000a031916815260200191505b509250505060405180910390f35b34801561026157600080fd5b5061026a610546565b604051808273ffffffffffffffffffffffffffffffffffffffff1673ffffffffffffffffffffffffffffffffffffffff16815260200191505060405180910390f35b3480156102b857600080fd5b506102c161056f565b6040518080602001828103825283818151815260200191508051906020019080838360005b838110156103015780820151818401526020810190506102e6565b50505050905090810190601f16801561032e5780820380516001836020036101000a031916815260200191505b509250505060405180910390f35b60608060016002818054600181600116156101000203166002900480601f0160208091040260200160405190810160405280929190818152602001828054600181600116156101000203166002900480156103d85780601f106103ad576101008083540402835291602001916103d8565b820191906000526020600020905b8154815290600101906020018083116103bb57829003601f168201915b50505050509150808054600181600116156101000203166002900480601f0160208091040260200160405190810160405280929190818152602001828054600181600116156101000203166002900480156104745780601f1061044957610100808354040283529160200191610474565b820191906000526020600020905b81548152906001019060200180831161045757829003601f168201915b50505050509050915091509091565b6000809054906101000a900473ffffffffffffffffffffffffffffffffffffffff1681565b60018054600181600116156101000203166002900480601f01602080910402602001604051908101604052809291908181526020018280546001816001161561010002031660029004801561053e5780601f106105135761010080835404028352916020019161053e565b820191906000526020600020905b81548152906001019060200180831161052157829003601f168201915b505050505081565b60008060009054906101000a900473ffffffffffffffffffffffffffffffffffffffff16905090565b60028054600181600116156101000203166002900480601f0160208091040260200160405190810160405280929190818152602001828054600181600116156101000203166002900480156106055780601f106105da57610100808354040283529160200191610605565b820191906000526020600020905b8154815290600101906020018083116105e857829003601f168201915b5050505050815600a165627a7a723058206cf2c141c2125b8685337629c961ea6918be7e3a9d94e0a27091a634a649922b0029a165627a7a72305820f899a20c1c0aa3a91952cda19930f336c07dd102e1ac05204478ba971929973b0029",
  "source": "pragma solidity ^0.4.17;\n\nimport './Collection.sol';\n\ncontract collectionRegistry {\n\n  // Mapping between wallets and collections\n  mapping (address => address[]) public collections;\n\n  function createCollection(\n    string title,\n    string alias)\n    public\n    returns (address){\n    Collection collection = new Collection(title, alias);\n    // Maps the Collection address to the creator\n    collections[msg.sender].push(collection);\n    return collection;\n  }\n\n  function getCollectionsByAddr(address walletAddr) public view returns (address[]) {\n    return collections[walletAddr];\n  }\n\n}\n",
  "sourcePath": "/Users/juanroalvarado/Desktop/qi/qi-contracts/contracts/collectionRegistry.sol",
  "compiler": {
    "name": "solc",
    "version": "0.4.24+commit.e67f0147.Emscripten.clang"
  },
  "schemaVersion": "2.0.1",
  "updatedAt": "2018-09-22T20:29:42.473Z"
}