{
  "contractName": "ownerRegistry",
  "abi": [
    {
      "constant": true,
      "inputs": [
        {
          "name": "",
          "type": "address"
        }
      ],
      "name": "owners",
      "outputs": [
        {
          "name": "",
          "type": "address"
        }
      ],
      "payable": false,
      "stateMutability": "view",
      "type": "function"
    },
    {
      "constant": false,
      "inputs": [
        {
          "name": "ownerAddr",
          "type": "address"
        }
      ],
      "name": "registerOwner",
      "outputs": [],
      "payable": false,
      "stateMutability": "nonpayable",
      "type": "function"
    },
    {
      "constant": true,
      "inputs": [
        {
          "name": "walletAddr",
          "type": "address"
        }
      ],
      "name": "getOwnerByAddr",
      "outputs": [
        {
          "name": "",
          "type": "address"
        }
      ],
      "payable": false,
      "stateMutability": "view",
      "type": "function"
    }
  ],
  "bytecode": "0x608060405234801561001057600080fd5b506103e8806100206000396000f300608060405260043610610057576000357c0100000000000000000000000000000000000000000000000000000000900463ffffffff168063022914a71461005c5780631220c6ed146100df578063c805bec514610122575b600080fd5b34801561006857600080fd5b5061009d600480360381019080803573ffffffffffffffffffffffffffffffffffffffff1690602001909291905050506101a5565b604051808273ffffffffffffffffffffffffffffffffffffffff1673ffffffffffffffffffffffffffffffffffffffff16815260200191505060405180910390f35b3480156100eb57600080fd5b50610120600480360381019080803573ffffffffffffffffffffffffffffffffffffffff1690602001909291905050506101d8565b005b34801561012e57600080fd5b50610163600480360381019080803573ffffffffffffffffffffffffffffffffffffffff16906020019092919050505061026c565b604051808273ffffffffffffffffffffffffffffffffffffffff1673ffffffffffffffffffffffffffffffffffffffff16815260200191505060405180910390f35b60006020528060005260406000206000915054906101000a900473ffffffffffffffffffffffffffffffffffffffff1681565b6101e1816102d4565b15156101ec57600080fd5b806000803373ffffffffffffffffffffffffffffffffffffffff1673ffffffffffffffffffffffffffffffffffffffff16815260200190815260200160002060006101000a81548173ffffffffffffffffffffffffffffffffffffffff021916908373ffffffffffffffffffffffffffffffffffffffff16021790555050565b60008060008373ffffffffffffffffffffffffffffffffffffffff1673ffffffffffffffffffffffffffffffffffffffff16815260200190815260200160002060009054906101000a900473ffffffffffffffffffffffffffffffffffffffff169050919050565b6000808290508073ffffffffffffffffffffffffffffffffffffffff1663893d20e86040518163ffffffff167c0100000000000000000000000000000000000000000000000000000000028152600401602060405180830381600087803b15801561033e57600080fd5b505af1158015610352573d6000803e3d6000fd5b505050506040513d602081101561036857600080fd5b810190808051906020019092919050505073ffffffffffffffffffffffffffffffffffffffff163373ffffffffffffffffffffffffffffffffffffffff161415156103b257600080fd5b60019150509190505600a165627a7a723058202b619b811fb3f308a56a1f4501dea2693ac7130a4c09d573712bc51ae84119e70029",
  "source": "pragma solidity ^0.4.17;\n\nimport './Owner.sol';\n\ncontract ownerRegistry {\n\n  // Mapping between wallets and Owner contracts\n  mapping (address => address) public owners;\n\n  function validate(address ownerAddr) private view returns (bool){\n    // Function for accessing Qi contract and verifying owner\n    Owner o = Owner(ownerAddr);\n\t\trequire(msg.sender == o.getOwner());\n    return true;\n  }\n\n  function registerOwner(address ownerAddr) public {\n    require(validate(ownerAddr));\n    // Maps the wallet address to the owner address\n    owners[msg.sender] = ownerAddr;\n  }\n\n  function getOwnerByAddr(address walletAddr) public view returns (address) {\n    return owners[walletAddr];\n  }\n\n}\n",
  "sourcePath": "/Users/juanroalvarado/Desktop/qi/Q-i-/contracts/ownerRegistry.sol",
  "compiler": {
    "name": "solc",
    "version": "0.4.24+commit.e67f0147.Emscripten.clang"
  },
  "schemaVersion": "2.0.1",
  "updatedAt": "2018-09-22T15:20:58.364Z"
}