{
  "contractName": "qiRegistry",
  "abi": [
    {
      "constant": true,
      "inputs": [
        {
          "name": "",
          "type": "address"
        },
        {
          "name": "",
          "type": "uint256"
        }
      ],
      "name": "issuers",
      "outputs": [
        {
          "name": "",
          "type": "address"
        }
      ],
      "payable": false,
      "stateMutability": "view",
      "type": "function"
    },
    {
      "constant": true,
      "inputs": [
        {
          "name": "",
          "type": "address"
        },
        {
          "name": "",
          "type": "uint256"
        }
      ],
      "name": "receivers",
      "outputs": [
        {
          "name": "",
          "type": "address"
        }
      ],
      "payable": false,
      "stateMutability": "view",
      "type": "function"
    },
    {
      "constant": false,
      "inputs": [
        {
          "name": "qiAddress",
          "type": "address"
        }
      ],
      "name": "registerEmmiter",
      "outputs": [],
      "payable": false,
      "stateMutability": "nonpayable",
      "type": "function"
    },
    {
      "constant": false,
      "inputs": [
        {
          "name": "qiAddress",
          "type": "address"
        },
        {
          "name": "receiverAddress",
          "type": "address"
        }
      ],
      "name": "registerReceiver",
      "outputs": [],
      "payable": false,
      "stateMutability": "nonpayable",
      "type": "function"
    },
    {
      "constant": true,
      "inputs": [
        {
          "name": "issuerAddress",
          "type": "address"
        }
      ],
      "name": "getEmitterQis",
      "outputs": [
        {
          "name": "",
          "type": "address[]"
        }
      ],
      "payable": false,
      "stateMutability": "view",
      "type": "function"
    },
    {
      "constant": true,
      "inputs": [
        {
          "name": "receiverAddress",
          "type": "address"
        }
      ],
      "name": "getReceiverQis",
      "outputs": [
        {
          "name": "",
          "type": "address[]"
        }
      ],
      "payable": false,
      "stateMutability": "view",
      "type": "function"
    }
  ],
  "bytecode": "0x608060405234801561001057600080fd5b506108e1806100206000396000f300608060405260043610610078576000357c0100000000000000000000000000000000000000000000000000000000900463ffffffff1680634c545d081461007d5780635774a0271461010a5780639b719f081461016d578063a22e364c14610205578063d9e746a014610292578063f9a58c491461032a575b600080fd5b34801561008957600080fd5b506100c8600480360381019080803573ffffffffffffffffffffffffffffffffffffffff1690602001909291908035906020019092919050505061036d565b604051808273ffffffffffffffffffffffffffffffffffffffff1673ffffffffffffffffffffffffffffffffffffffff16815260200191505060405180910390f35b34801561011657600080fd5b5061016b600480360381019080803573ffffffffffffffffffffffffffffffffffffffff169060200190929190803573ffffffffffffffffffffffffffffffffffffffff1690602001909291905050506103ba565b005b34801561017957600080fd5b506101ae600480360381019080803573ffffffffffffffffffffffffffffffffffffffff16906020019092919050505061052e565b6040518080602001828103825283818151815260200191508051906020019060200280838360005b838110156101f15780820151818401526020810190506101d6565b505050509050019250505060405180910390f35b34801561021157600080fd5b50610250600480360381019080803573ffffffffffffffffffffffffffffffffffffffff169060200190929190803590602001909291905050506105fa565b604051808273ffffffffffffffffffffffffffffffffffffffff1673ffffffffffffffffffffffffffffffffffffffff16815260200191505060405180910390f35b34801561029e57600080fd5b506102d3600480360381019080803573ffffffffffffffffffffffffffffffffffffffff169060200190929190505050610647565b6040518080602001828103825283818151815260200191508051906020019060200280838360005b838110156103165780820151818401526020810190506102fb565b505050509050019250505060405180910390f35b34801561033657600080fd5b5061036b600480360381019080803573ffffffffffffffffffffffffffffffffffffffff169060200190929190505050610714565b005b60006020528160005260406000208181548110151561038857fe5b906000526020600020016000915091509054906101000a900473ffffffffffffffffffffffffffffffffffffffff1681565b60006103c5836107cd565b15156103d057600080fd5b600160008373ffffffffffffffffffffffffffffffffffffffff1673ffffffffffffffffffffffffffffffffffffffff1681526020019081526020016000208390806001815401808255809150509060018203906000526020600020016000909192909190916101000a81548173ffffffffffffffffffffffffffffffffffffffff021916908373ffffffffffffffffffffffffffffffffffffffff160217905550508290508073ffffffffffffffffffffffffffffffffffffffff1663612830e7836040518263ffffffff167c0100000000000000000000000000000000000000000000000000000000028152600401808273ffffffffffffffffffffffffffffffffffffffff1673ffffffffffffffffffffffffffffffffffffffff168152602001915050600060405180830381600087803b15801561051157600080fd5b505af1158015610525573d6000803e3d6000fd5b50505050505050565b60606000808373ffffffffffffffffffffffffffffffffffffffff1673ffffffffffffffffffffffffffffffffffffffff1681526020019081526020016000208054806020026020016040519081016040528092919081815260200182805480156105ee57602002820191906000526020600020905b8160009054906101000a900473ffffffffffffffffffffffffffffffffffffffff1673ffffffffffffffffffffffffffffffffffffffff16815260200190600101908083116105a4575b50505050509050919050565b60016020528160005260406000208181548110151561061557fe5b906000526020600020016000915091509054906101000a900473ffffffffffffffffffffffffffffffffffffffff1681565b6060600160008373ffffffffffffffffffffffffffffffffffffffff1673ffffffffffffffffffffffffffffffffffffffff16815260200190815260200160002080548060200260200160405190810160405280929190818152602001828054801561070857602002820191906000526020600020905b8160009054906101000a900473ffffffffffffffffffffffffffffffffffffffff1673ffffffffffffffffffffffffffffffffffffffff16815260200190600101908083116106be575b50505050509050919050565b61071d816107cd565b151561072857600080fd5b6000803373ffffffffffffffffffffffffffffffffffffffff1673ffffffffffffffffffffffffffffffffffffffff1681526020019081526020016000208190806001815401808255809150509060018203906000526020600020016000909192909190916101000a81548173ffffffffffffffffffffffffffffffffffffffff021916908373ffffffffffffffffffffffffffffffffffffffff1602179055505050565b6000808290508073ffffffffffffffffffffffffffffffffffffffff1663893d20e86040518163ffffffff167c0100000000000000000000000000000000000000000000000000000000028152600401602060405180830381600087803b15801561083757600080fd5b505af115801561084b573d6000803e3d6000fd5b505050506040513d602081101561086157600080fd5b810190808051906020019092919050505073ffffffffffffffffffffffffffffffffffffffff163373ffffffffffffffffffffffffffffffffffffffff161415156108ab57600080fd5b60019150509190505600a165627a7a72305820bd1692b6adfa5cda4560434b8f398062e9937b0cf01f9f6511069895687afe690029",
  "source": "pragma solidity ^0.4.17;\n\nimport './Qi.sol';\n\ncontract qiRegistry {\n\n  // Mapping between profile and Q'i's it created\n  mapping (address => address[]) public issuers;\n\n  // Mapping between profile and Q'i's it owns\n  mapping (address => address[]) public receivers;\n\n  function validate(address qiAddress) private view returns (bool){\n    // Function for accessing Qi contract and verifying owner\n    Qi q = Qi(qiAddress);\n\t\trequire(msg.sender == q.getOwner());\n    return true;\n  }\n\n  function registerEmmiter(address qiAddress) public {\n\n    require(validate(qiAddress));\n    // Maps the Qi address to the Qi creator\n    issuers[msg.sender].push(qiAddress);\n  }\n\n  function registerReceiver(address qiAddress, address receiverAddress) public {\n\n    require(validate(qiAddress));\n    // Maps Qi address to the receiver's Q'i' list\n    // Sets the date in which the Q'i' was emmited\n    receivers[receiverAddress].push(qiAddress);\n    Qi q = Qi(qiAddress);\n    q.newIssueDate(receiverAddress);\n  }\n\n  function getEmitterQis(address issuerAddress) public view returns (address[]){\n    return issuers[issuerAddress];\n  }\n\n  function getReceiverQis(address receiverAddress) public view returns (address[]) {\n    return receivers[receiverAddress];\n  }\n\n}\n",
  "sourcePath": "/Users/juanroalvarado/Desktop/qi/Q-i-/contracts/qiRegistry.sol",
  "compiler": {
    "name": "solc",
    "version": "0.4.24+commit.e67f0147.Emscripten.clang"
  },
  "schemaVersion": "2.0.1",
  "updatedAt": "2018-09-22T12:49:10.913Z"
}