{
  "contractName": "User",
  "abi": [
    {
      "constant": true,
      "inputs": [],
      "name": "birthday",
      "outputs": [
        {
          "name": "",
          "type": "string"
        }
      ],
      "payable": false,
      "stateMutability": "view",
      "type": "function"
    },
    {
      "constant": true,
      "inputs": [
        {
          "name": "",
          "type": "address"
        },
        {
          "name": "",
          "type": "uint256"
        }
      ],
      "name": "profileByAddress",
      "outputs": [
        {
          "name": "",
          "type": "address"
        }
      ],
      "payable": false,
      "stateMutability": "view",
      "type": "function"
    },
    {
      "constant": true,
      "inputs": [],
      "name": "userName",
      "outputs": [
        {
          "name": "",
          "type": "string"
        }
      ],
      "payable": false,
      "stateMutability": "view",
      "type": "function"
    },
    {
      "constant": true,
      "inputs": [
        {
          "name": "",
          "type": "uint256"
        }
      ],
      "name": "profiles",
      "outputs": [
        {
          "name": "",
          "type": "address"
        }
      ],
      "payable": false,
      "stateMutability": "view",
      "type": "function"
    },
    {
      "inputs": [
        {
          "name": "name",
          "type": "string"
        },
        {
          "name": "bday",
          "type": "string"
        }
      ],
      "payable": false,
      "stateMutability": "nonpayable",
      "type": "constructor"
    },
    {
      "constant": true,
      "inputs": [],
      "name": "getProfiles",
      "outputs": [
        {
          "name": "",
          "type": "address[]"
        }
      ],
      "payable": false,
      "stateMutability": "view",
      "type": "function"
    },
    {
      "constant": true,
      "inputs": [
        {
          "name": "profile",
          "type": "address"
        }
      ],
      "name": "getProfileByAddress",
      "outputs": [
        {
          "name": "",
          "type": "address[]"
        }
      ],
      "payable": false,
      "stateMutability": "view",
      "type": "function"
    },
    {
      "constant": false,
      "inputs": [
        {
          "name": "profile",
          "type": "address"
        }
      ],
      "name": "setProfile",
      "outputs": [],
      "payable": false,
      "stateMutability": "nonpayable",
      "type": "function"
    }
  ],
  "bytecode": "0x608060405234801561001057600080fd5b5060405161090e38038061090e833981018060405281019080805182019291906020018051820192919050505033600260006101000a81548173ffffffffffffffffffffffffffffffffffffffff021916908373ffffffffffffffffffffffffffffffffffffffff16021790555081600390805190602001906100949291906100ba565b5080600490805190602001906100ab9291906100ba565b5042600581905550505061015f565b828054600181600116156101000203166002900490600052602060002090601f016020900481019282601f106100fb57805160ff1916838001178555610129565b82800160010185558215610129579182015b8281111561012857825182559160200191906001019061010d565b5b509050610136919061013a565b5090565b61015c91905b80821115610158576000816000905550600101610140565b5090565b90565b6107a08061016e6000396000f300608060405260043610610083576000357c0100000000000000000000000000000000000000000000000000000000900463ffffffff1680634cd6959c146100885780635f9f4734146101205780635fe80c5c146101b057806370019b351461023d578063b2137033146102cd578063c36fe3d614610339578063e0b6a1e3146103a6575b600080fd5b34801561009457600080fd5b506100c9600480360381019080803573ffffffffffffffffffffffffffffffffffffffff1690602001909291905050506103e9565b6040518080602001828103825283818151815260200191508051906020019060200280838360005b8381101561010c5780820151818401526020810190506100f1565b505050509050019250505060405180910390f35b34801561012c57600080fd5b506101356104b6565b6040518080602001828103825283818151815260200191508051906020019080838360005b8381101561017557808201518184015260208101905061015a565b50505050905090810190601f1680156101a25780820380516001836020036101000a031916815260200191505b509250505060405180910390f35b3480156101bc57600080fd5b506101fb600480360381019080803573ffffffffffffffffffffffffffffffffffffffff16906020019092919080359060200190929190505050610554565b604051808273ffffffffffffffffffffffffffffffffffffffff1673ffffffffffffffffffffffffffffffffffffffff16815260200191505060405180910390f35b34801561024957600080fd5b506102526105a1565b6040518080602001828103825283818151815260200191508051906020019080838360005b83811015610292578082015181840152602081019050610277565b50505050905090810190601f1680156102bf5780820380516001836020036101000a031916815260200191505b509250505060405180910390f35b3480156102d957600080fd5b506102e261063f565b6040518080602001828103825283818151815260200191508051906020019060200280838360005b8381101561032557808201518184015260208101905061030a565b505050509050019250505060405180910390f35b34801561034557600080fd5b50610364600480360381019080803590602001909291905050506106cd565b604051808273ffffffffffffffffffffffffffffffffffffffff1673ffffffffffffffffffffffffffffffffffffffff16815260200191505060405180910390f35b3480156103b257600080fd5b506103e7600480360381019080803573ffffffffffffffffffffffffffffffffffffffff16906020019092919050505061070b565b005b6060600160008373ffffffffffffffffffffffffffffffffffffffff1673ffffffffffffffffffffffffffffffffffffffff1681526020019081526020016000208054806020026020016040519081016040528092919081815260200182805480156104aa57602002820191906000526020600020905b8160009054906101000a900473ffffffffffffffffffffffffffffffffffffffff1673ffffffffffffffffffffffffffffffffffffffff1681526020019060010190808311610460575b50505050509050919050565b60048054600181600116156101000203166002900480601f01602080910402602001604051908101604052809291908181526020018280546001816001161561010002031660029004801561054c5780601f106105215761010080835404028352916020019161054c565b820191906000526020600020905b81548152906001019060200180831161052f57829003601f168201915b505050505081565b60016020528160005260406000208181548110151561056f57fe5b906000526020600020016000915091509054906101000a900473ffffffffffffffffffffffffffffffffffffffff1681565b60038054600181600116156101000203166002900480601f0160208091040260200160405190810160405280929190818152602001828054600181600116156101000203166002900480156106375780601f1061060c57610100808354040283529160200191610637565b820191906000526020600020905b81548152906001019060200180831161061a57829003601f168201915b505050505081565b606060008054806020026020016040519081016040528092919081815260200182805480156106c357602002820191906000526020600020905b8160009054906101000a900473ffffffffffffffffffffffffffffffffffffffff1673ffffffffffffffffffffffffffffffffffffffff1681526020019060010190808311610679575b5050505050905090565b6000818154811015156106dc57fe5b906000526020600020016000915054906101000a900473ffffffffffffffffffffffffffffffffffffffff1681565b60008190806001815401808255809150509060018203906000526020600020016000909192909190916101000a81548173ffffffffffffffffffffffffffffffffffffffff021916908373ffffffffffffffffffffffffffffffffffffffff16021790555050505600a165627a7a72305820f3f7f4c0eb6f0c86888ee3942d1b769ecd55188045f52c4ff6c2791951984e9d0029",
  "source": "pragma solidity ^0.4.17;\n\n//User contract for profile creation and obtent\ncontract User {\n\t\n\taddress[] public profiles;\n\tmapping (address=>address[]) public profileByAddress; \n\taddress private walletOwner;\n\tstring public userName;\n\tstring public birthday;\n\tuint private userTimestamp;\n\t\n\t\n\tconstructor (string name, string bday) public {\n\t    walletOwner=msg.sender;\n\t    userName=name;\n\t    birthday=bday;\n\t    userTimestamp=block.timestamp;\n\t}\n\n\tfunction getProfiles() public view returns (address[]){\n\t\treturn profiles;\n\t}\n\n\tfunction getProfileByAddress(address profile) public view returns (address[]){\n\t\treturn profileByAddress[profile];\n\t}\n\t\n\tfunction setProfile(address profile) public {\n\t    profiles.push(profile);\n\t}\n}",
  "sourcePath": "/Users/baroness/Documents/201802/CS044 Blockchain (A)/Q-i-/contracts/User.sol",
  "compiler": {
    "name": "solc",
    "version": "0.4.24+commit.e67f0147.Emscripten.clang"
  },
  "schemaVersion": "2.0.1",
  "updatedAt": "2018-09-21T22:44:27.599Z"
}